{
  "_format": "hh-sol-artifact-1",
  "contractName": "MNFT",
  "sourceName": "contracts/contract.sol",
  "abi": [
    {
      "inputs": [],
      "stateMutability": "nonpayable",
      "type": "constructor"
    },
    {
      "inputs": [
        {
          "internalType": "address",
          "name": "sender",
          "type": "address"
        },
        {
          "internalType": "uint256",
          "name": "tokenId",
          "type": "uint256"
        },
        {
          "internalType": "address",
          "name": "owner",
          "type": "address"
        }
      ],
      "name": "ERC721IncorrectOwner",
      "type": "error"
    },
    {
      "inputs": [
        {
          "internalType": "address",
          "name": "operator",
          "type": "address"
        },
        {
          "internalType": "uint256",
          "name": "tokenId",
          "type": "uint256"
        }
      ],
      "name": "ERC721InsufficientApproval",
      "type": "error"
    },
    {
      "inputs": [
        {
          "internalType": "address",
          "name": "approver",
          "type": "address"
        }
      ],
      "name": "ERC721InvalidApprover",
      "type": "error"
    },
    {
      "inputs": [
        {
          "internalType": "address",
          "name": "operator",
          "type": "address"
        }
      ],
      "name": "ERC721InvalidOperator",
      "type": "error"
    },
    {
      "inputs": [
        {
          "internalType": "address",
          "name": "owner",
          "type": "address"
        }
      ],
      "name": "ERC721InvalidOwner",
      "type": "error"
    },
    {
      "inputs": [
        {
          "internalType": "address",
          "name": "receiver",
          "type": "address"
        }
      ],
      "name": "ERC721InvalidReceiver",
      "type": "error"
    },
    {
      "inputs": [
        {
          "internalType": "address",
          "name": "sender",
          "type": "address"
        }
      ],
      "name": "ERC721InvalidSender",
      "type": "error"
    },
    {
      "inputs": [
        {
          "internalType": "uint256",
          "name": "tokenId",
          "type": "uint256"
        }
      ],
      "name": "ERC721NonexistentToken",
      "type": "error"
    },
    {
      "anonymous": false,
      "inputs": [
        {
          "indexed": true,
          "internalType": "address",
          "name": "owner",
          "type": "address"
        },
        {
          "indexed": true,
          "internalType": "address",
          "name": "approved",
          "type": "address"
        },
        {
          "indexed": true,
          "internalType": "uint256",
          "name": "tokenId",
          "type": "uint256"
        }
      ],
      "name": "Approval",
      "type": "event"
    },
    {
      "anonymous": false,
      "inputs": [
        {
          "indexed": true,
          "internalType": "address",
          "name": "owner",
          "type": "address"
        },
        {
          "indexed": true,
          "internalType": "address",
          "name": "operator",
          "type": "address"
        },
        {
          "indexed": false,
          "internalType": "bool",
          "name": "approved",
          "type": "bool"
        }
      ],
      "name": "ApprovalForAll",
      "type": "event"
    },
    {
      "anonymous": false,
      "inputs": [
        {
          "indexed": false,
          "internalType": "uint256",
          "name": "_fromTokenId",
          "type": "uint256"
        },
        {
          "indexed": false,
          "internalType": "uint256",
          "name": "_toTokenId",
          "type": "uint256"
        }
      ],
      "name": "BatchMetadataUpdate",
      "type": "event"
    },
    {
      "anonymous": false,
      "inputs": [
        {
          "indexed": false,
          "internalType": "uint256",
          "name": "_tokenId",
          "type": "uint256"
        }
      ],
      "name": "MetadataUpdate",
      "type": "event"
    },
    {
      "anonymous": false,
      "inputs": [
        {
          "indexed": false,
          "internalType": "uint256",
          "name": "tokenId",
          "type": "uint256"
        },
        {
          "indexed": false,
          "internalType": "uint256",
          "name": "price",
          "type": "uint256"
        }
      ],
      "name": "NFTListed",
      "type": "event"
    },
    {
      "anonymous": false,
      "inputs": [
        {
          "indexed": false,
          "internalType": "uint256",
          "name": "itemId",
          "type": "uint256"
        },
        {
          "indexed": false,
          "internalType": "uint256",
          "name": "tokenId",
          "type": "uint256"
        },
        {
          "indexed": false,
          "internalType": "uint256",
          "name": "price",
          "type": "uint256"
        },
        {
          "indexed": true,
          "internalType": "address",
          "name": "seller",
          "type": "address"
        }
      ],
      "name": "Offered",
      "type": "event"
    },
    {
      "anonymous": false,
      "inputs": [
        {
          "indexed": false,
          "internalType": "uint256",
          "name": "itemId",
          "type": "uint256"
        },
        {
          "indexed": false,
          "internalType": "uint256",
          "name": "tokenId",
          "type": "uint256"
        },
        {
          "indexed": false,
          "internalType": "uint256",
          "name": "price",
          "type": "uint256"
        },
        {
          "indexed": true,
          "internalType": "address",
          "name": "buyer",
          "type": "address"
        }
      ],
      "name": "Purchased",
      "type": "event"
    },
    {
      "anonymous": false,
      "inputs": [
        {
          "indexed": true,
          "internalType": "address",
          "name": "from",
          "type": "address"
        },
        {
          "indexed": true,
          "internalType": "address",
          "name": "to",
          "type": "address"
        },
        {
          "indexed": true,
          "internalType": "uint256",
          "name": "tokenId",
          "type": "uint256"
        }
      ],
      "name": "Transfer",
      "type": "event"
    },
    {
      "inputs": [
        {
          "internalType": "address",
          "name": "to",
          "type": "address"
        },
        {
          "internalType": "uint256",
          "name": "tokenId",
          "type": "uint256"
        }
      ],
      "name": "approve",
      "outputs": [],
      "stateMutability": "nonpayable",
      "type": "function"
    },
    {
      "inputs": [
        {
          "internalType": "address",
          "name": "owner",
          "type": "address"
        }
      ],
      "name": "balanceOf",
      "outputs": [
        {
          "internalType": "uint256",
          "name": "",
          "type": "uint256"
        }
      ],
      "stateMutability": "view",
      "type": "function"
    },
    {
      "inputs": [
        {
          "internalType": "uint256",
          "name": "tokenId",
          "type": "uint256"
        }
      ],
      "name": "getApproved",
      "outputs": [
        {
          "internalType": "address",
          "name": "",
          "type": "address"
        }
      ],
      "stateMutability": "view",
      "type": "function"
    },
    {
      "inputs": [
        {
          "internalType": "uint256",
          "name": "_itemId",
          "type": "uint256"
        }
      ],
      "name": "getTotalPrice",
      "outputs": [
        {
          "internalType": "uint256",
          "name": "",
          "type": "uint256"
        }
      ],
      "stateMutability": "view",
      "type": "function"
    },
    {
      "inputs": [
        {
          "internalType": "address",
          "name": "owner",
          "type": "address"
        },
        {
          "internalType": "address",
          "name": "operator",
          "type": "address"
        }
      ],
      "name": "isApprovedForAll",
      "outputs": [
        {
          "internalType": "bool",
          "name": "",
          "type": "bool"
        }
      ],
      "stateMutability": "view",
      "type": "function"
    },
    {
      "inputs": [],
      "name": "itemCount",
      "outputs": [
        {
          "internalType": "uint256",
          "name": "",
          "type": "uint256"
        }
      ],
      "stateMutability": "view",
      "type": "function"
    },
    {
      "inputs": [
        {
          "internalType": "uint256",
          "name": "",
          "type": "uint256"
        }
      ],
      "name": "items",
      "outputs": [
        {
          "internalType": "uint256",
          "name": "itemId",
          "type": "uint256"
        },
        {
          "internalType": "uint256",
          "name": "tokenId",
          "type": "uint256"
        },
        {
          "internalType": "uint256",
          "name": "price",
          "type": "uint256"
        },
        {
          "internalType": "address payable",
          "name": "seller",
          "type": "address"
        },
        {
          "internalType": "bool",
          "name": "sold",
          "type": "bool"
        }
      ],
      "stateMutability": "view",
      "type": "function"
    },
    {
      "inputs": [
        {
          "internalType": "uint256",
          "name": "tokenId",
          "type": "uint256"
        },
        {
          "internalType": "uint256",
          "name": "price",
          "type": "uint256"
        }
      ],
      "name": "listNFT",
      "outputs": [],
      "stateMutability": "nonpayable",
      "type": "function"
    },
    {
      "inputs": [
        {
          "internalType": "uint256",
          "name": "",
          "type": "uint256"
        }
      ],
      "name": "listedItems",
      "outputs": [
        {
          "internalType": "uint256",
          "name": "",
          "type": "uint256"
        }
      ],
      "stateMutability": "view",
      "type": "function"
    },
    {
      "inputs": [
        {
          "internalType": "string",
          "name": "_tokenURI",
          "type": "string"
        },
        {
          "internalType": "uint256",
          "name": "_price",
          "type": "uint256"
        }
      ],
      "name": "mint",
      "outputs": [
        {
          "internalType": "uint256",
          "name": "",
          "type": "uint256"
        }
      ],
      "stateMutability": "nonpayable",
      "type": "function"
    },
    {
      "inputs": [],
      "name": "name",
      "outputs": [
        {
          "internalType": "string",
          "name": "",
          "type": "string"
        }
      ],
      "stateMutability": "view",
      "type": "function"
    },
    {
      "inputs": [
        {
          "internalType": "uint256",
          "name": "tokenId",
          "type": "uint256"
        }
      ],
      "name": "ownerOf",
      "outputs": [
        {
          "internalType": "address",
          "name": "",
          "type": "address"
        }
      ],
      "stateMutability": "view",
      "type": "function"
    },
    {
      "inputs": [
        {
          "internalType": "uint256",
          "name": "_itemId",
          "type": "uint256"
        }
      ],
      "name": "purchaseItem",
      "outputs": [],
      "stateMutability": "payable",
      "type": "function"
    },
    {
      "inputs": [
        {
          "internalType": "address",
          "name": "from",
          "type": "address"
        },
        {
          "internalType": "address",
          "name": "to",
          "type": "address"
        },
        {
          "internalType": "uint256",
          "name": "tokenId",
          "type": "uint256"
        }
      ],
      "name": "safeTransferFrom",
      "outputs": [],
      "stateMutability": "nonpayable",
      "type": "function"
    },
    {
      "inputs": [
        {
          "internalType": "address",
          "name": "from",
          "type": "address"
        },
        {
          "internalType": "address",
          "name": "to",
          "type": "address"
        },
        {
          "internalType": "uint256",
          "name": "tokenId",
          "type": "uint256"
        },
        {
          "internalType": "bytes",
          "name": "data",
          "type": "bytes"
        }
      ],
      "name": "safeTransferFrom",
      "outputs": [],
      "stateMutability": "nonpayable",
      "type": "function"
    },
    {
      "inputs": [
        {
          "internalType": "address",
          "name": "operator",
          "type": "address"
        },
        {
          "internalType": "bool",
          "name": "approved",
          "type": "bool"
        }
      ],
      "name": "setApprovalForAll",
      "outputs": [],
      "stateMutability": "nonpayable",
      "type": "function"
    },
    {
      "inputs": [
        {
          "internalType": "bytes4",
          "name": "interfaceId",
          "type": "bytes4"
        }
      ],
      "name": "supportsInterface",
      "outputs": [
        {
          "internalType": "bool",
          "name": "",
          "type": "bool"
        }
      ],
      "stateMutability": "view",
      "type": "function"
    },
    {
      "inputs": [],
      "name": "symbol",
      "outputs": [
        {
          "internalType": "string",
          "name": "",
          "type": "string"
        }
      ],
      "stateMutability": "view",
      "type": "function"
    },
    {
      "inputs": [],
      "name": "tokenCount",
      "outputs": [
        {
          "internalType": "uint256",
          "name": "",
          "type": "uint256"
        }
      ],
      "stateMutability": "view",
      "type": "function"
    },
    {
      "inputs": [
        {
          "internalType": "uint256",
          "name": "tokenId",
          "type": "uint256"
        }
      ],
      "name": "tokenURI",
      "outputs": [
        {
          "internalType": "string",
          "name": "",
          "type": "string"
        }
      ],
      "stateMutability": "view",
      "type": "function"
    },
    {
      "inputs": [
        {
          "internalType": "address",
          "name": "from",
          "type": "address"
        },
        {
          "internalType": "address",
          "name": "to",
          "type": "address"
        },
        {
          "internalType": "uint256",
          "name": "tokenId",
          "type": "uint256"
        }
      ],
      "name": "transferFrom",
      "outputs": [],
      "stateMutability": "nonpayable",
      "type": "function"
    }
  ],
  "bytecode": "0x60806040523480156200001157600080fd5b506040518060400160405280600581526020017f4d794e66740000000000000000000000000000000000000000000000000000008152506040518060400160405280600481526020017f4d4e46540000000000000000000000000000000000000000000000000000000081525081600090816200008f919062000324565b508060019081620000a1919062000324565b5050506200040b565b600081519050919050565b7f4e487b7100000000000000000000000000000000000000000000000000000000600052604160045260246000fd5b7f4e487b7100000000000000000000000000000000000000000000000000000000600052602260045260246000fd5b600060028204905060018216806200012c57607f821691505b602082108103620001425762000141620000e4565b5b50919050565b60008190508160005260206000209050919050565b60006020601f8301049050919050565b600082821b905092915050565b600060088302620001ac7fffffffffffffffffffffffffffffffffffffffffffffffffffffffffffffffff826200016d565b620001b886836200016d565b95508019841693508086168417925050509392505050565b6000819050919050565b6000819050919050565b600062000205620001ff620001f984620001d0565b620001da565b620001d0565b9050919050565b6000819050919050565b6200022183620001e4565b6200023962000230826200020c565b8484546200017a565b825550505050565b600090565b6200025062000241565b6200025d81848462000216565b505050565b5b8181101562000285576200027960008262000246565b60018101905062000263565b5050565b601f821115620002d4576200029e8162000148565b620002a9846200015d565b81016020851015620002b9578190505b620002d1620002c8856200015d565b83018262000262565b50505b505050565b600082821c905092915050565b6000620002f960001984600802620002d9565b1980831691505092915050565b6000620003148383620002e6565b9150826002028217905092915050565b6200032f82620000aa565b67ffffffffffffffff8111156200034b576200034a620000b5565b5b62000357825462000113565b6200036482828562000289565b600060209050601f8311600181146200039c576000841562000387578287015190505b62000393858262000306565b86555062000403565b601f198416620003ac8662000148565b60005b82811015620003d657848901518255600182019150602085019450602081019050620003af565b86831015620003f65784890151620003f2601f891682620002e6565b8355505b6001600288020188555050505b505050505050565b612e77806200041b6000396000f3fe60806040526004361061012a5760003560e01c806394383f14116100ab578063bfb231d21161006f578063bfb231d214610402578063c87b56dd14610443578063ca7dd37514610480578063d2347061146104bd578063d38ea5bf146104fa578063e985e9c5146105165761012a565b806394383f141461033157806395d89b411461035a5780639f181b5e14610385578063a22cb465146103b0578063b88d4fde146103d95761012a565b806323b872dd116100f257806323b872dd1461023a57806342842e0e146102635780636352211e1461028c5780636bfb0d01146102c957806370a08231146102f45761012a565b806301ffc9a71461012f578063056b01ce1461016c57806306fdde03146101a9578063081812fc146101d4578063095ea7b314610211575b600080fd5b34801561013b57600080fd5b5061015660048036038101906101519190611f72565b610553565b6040516101639190611fba565b60405180910390f35b34801561017857600080fd5b50610193600480360381019061018e9190612151565b6105b4565b6040516101a091906121bc565b60405180910390f35b3480156101b557600080fd5b506101be61074c565b6040516101cb9190612256565b60405180910390f35b3480156101e057600080fd5b506101fb60048036038101906101f69190612278565b6107de565b60405161020891906122e6565b60405180910390f35b34801561021d57600080fd5b506102386004803603810190610233919061232d565b6107fa565b005b34801561024657600080fd5b50610261600480360381019061025c919061236d565b610810565b005b34801561026f57600080fd5b5061028a6004803603810190610285919061236d565b610912565b005b34801561029857600080fd5b506102b360048036038101906102ae9190612278565b610932565b6040516102c091906122e6565b60405180910390f35b3480156102d557600080fd5b506102de610944565b6040516102eb91906121bc565b60405180910390f35b34801561030057600080fd5b5061031b600480360381019061031691906123c0565b61094a565b60405161032891906121bc565b60405180910390f35b34801561033d57600080fd5b50610358600480360381019061035391906123ed565b610a04565b005b34801561036657600080fd5b5061036f610b12565b60405161037c9190612256565b60405180910390f35b34801561039157600080fd5b5061039a610ba4565b6040516103a791906121bc565b60405180910390f35b3480156103bc57600080fd5b506103d760048036038101906103d29190612459565b610baa565b005b3480156103e557600080fd5b5061040060048036038101906103fb919061253a565b610bc0565b005b34801561040e57600080fd5b5061042960048036038101906104249190612278565b610be5565b60405161043a9594939291906125de565b60405180910390f35b34801561044f57600080fd5b5061046a60048036038101906104659190612278565b610c48565b6040516104779190612256565b60405180910390f35b34801561048c57600080fd5b506104a760048036038101906104a29190612278565b610d5b565b6040516104b491906121bc565b60405180910390f35b3480156104c957600080fd5b506104e460048036038101906104df9190612278565b610d93565b6040516104f191906121bc565b60405180910390f35b610514600480360381019061050f9190612278565b610dab565b005b34801561052257600080fd5b5061053d60048036038101906105389190612631565b610f4e565b60405161054a9190611fba565b60405180910390f35b6000634906490660e01b7bffffffffffffffffffffffffffffffffffffffffffffffffffffffff1916827bffffffffffffffffffffffffffffffffffffffffffffffffffffffff191614806105ad57506105ac82610fe2565b5b9050919050565b6000600760008154809291906105c9906126a0565b9190505550600860008154809291906105e1906126a0565b91905055506105f2336007546110c4565b6105fe600754846110e2565b6040518060a00160405280600854815260200160075481526020018381526020013373ffffffffffffffffffffffffffffffffffffffff1681526020016000151581525060096000600854815260200190815260200160002060008201518160000155602082015181600101556040820151816002015560608201518160030160006101000a81548173ffffffffffffffffffffffffffffffffffffffff021916908373ffffffffffffffffffffffffffffffffffffffff16021790555060808201518160030160146101000a81548160ff0219169083151502179055509050503373ffffffffffffffffffffffffffffffffffffffff167fd846d2cfaaa23a2723be747ef18b5d16a1484d901d581da4843cc27638c862ad6008546007548560405161072d939291906126e8565b60405180910390a261074160075483610a04565b600754905092915050565b60606000805461075b9061274e565b80601f01602080910402602001604051908101604052809291908181526020018280546107879061274e565b80156107d45780601f106107a9576101008083540402835291602001916107d4565b820191906000526020600020905b8154815290600101906020018083116107b757829003601f168201915b5050505050905090565b60006107e98261113e565b506107f3826111c6565b9050919050565b61080c8282610807611203565b61120b565b5050565b600073ffffffffffffffffffffffffffffffffffffffff168273ffffffffffffffffffffffffffffffffffffffff16036108825760006040517f64a0ae9200000000000000000000000000000000000000000000000000000000815260040161087991906122e6565b60405180910390fd5b60006108968383610891611203565b61121d565b90508373ffffffffffffffffffffffffffffffffffffffff168173ffffffffffffffffffffffffffffffffffffffff161461090c578382826040517f64283d7b0000000000000000000000000000000000000000000000000000000081526004016109039392919061277f565b60405180910390fd5b50505050565b61092d83838360405180602001604052806000815250610bc0565b505050565b600061093d8261113e565b9050919050565b60085481565b60008073ffffffffffffffffffffffffffffffffffffffff168273ffffffffffffffffffffffffffffffffffffffff16036109bd5760006040517f89c62b640000000000000000000000000000000000000000000000000000000081526004016109b491906122e6565b60405180910390fd5b600360008373ffffffffffffffffffffffffffffffffffffffff1673ffffffffffffffffffffffffffffffffffffffff168152602001908152602001600020549050919050565b3373ffffffffffffffffffffffffffffffffffffffff16610a2483610932565b73ffffffffffffffffffffffffffffffffffffffff1614610a7a576040517f08c379a0000000000000000000000000000000000000000000000000000000008152600401610a7190612802565b60405180910390fd5b60008111610abd576040517f08c379a0000000000000000000000000000000000000000000000000000000008152600401610ab49061286e565b60405180910390fd5b80600a6000848152602001908152602001600020819055507fa6cd73580a273eec6c1026108f6b63479fbaef5356dde4ff43e4b38dd187485f8282604051610b0692919061288e565b60405180910390a15050565b606060018054610b219061274e565b80601f0160208091040260200160405190810160405280929190818152602001828054610b4d9061274e565b8015610b9a5780601f10610b6f57610100808354040283529160200191610b9a565b820191906000526020600020905b815481529060010190602001808311610b7d57829003601f168201915b5050505050905090565b60075481565b610bbc610bb5611203565b8383611437565b5050565b610bcb848484610810565b610bdf610bd6611203565b858585856115a6565b50505050565b60096020528060005260406000206000915090508060000154908060010154908060020154908060030160009054906101000a900473ffffffffffffffffffffffffffffffffffffffff16908060030160149054906101000a900460ff16905085565b6060610c538261113e565b506000600660008481526020019081526020016000208054610c749061274e565b80601f0160208091040260200160405190810160405280929190818152602001828054610ca09061274e565b8015610ced5780601f10610cc257610100808354040283529160200191610ced565b820191906000526020600020905b815481529060010190602001808311610cd057829003601f168201915b505050505090506000610cfe611757565b90506000815103610d13578192505050610d56565b600082511115610d48578082604051602001610d309291906128f3565b60405160208183030381529060405292505050610d56565b610d518461176e565b925050505b919050565b6000606460676009600085815260200190815260200160002060020154610d829190612917565b610d8c9190612988565b9050919050565b600a6020528060005260406000206000915090505481565b6000610db682610d5b565b90506000600960008481526020019081526020016000209050600083118015610de157506008548311155b610e20576040517f08c379a0000000000000000000000000000000000000000000000000000000008152600401610e1790612a05565b60405180910390fd5b81341015610e63576040517f08c379a0000000000000000000000000000000000000000000000000000000008152600401610e5a90612a97565b60405180910390fd5b8060030160009054906101000a900473ffffffffffffffffffffffffffffffffffffffff1673ffffffffffffffffffffffffffffffffffffffff166108fc82600201549081150290604051600060405180830381858888f19350505050158015610ed1573d6000803e3d6000fd5b5060018160030160146101000a81548160ff0219169083151502179055503373ffffffffffffffffffffffffffffffffffffffff167fa923744d7e04ff4b7968f28603d15274656557c57da1606caa6feb90bd50a37b8483600101548460020154604051610f41939291906126e8565b60405180910390a2505050565b6000600560008473ffffffffffffffffffffffffffffffffffffffff1673ffffffffffffffffffffffffffffffffffffffff16815260200190815260200160002060008373ffffffffffffffffffffffffffffffffffffffff1673ffffffffffffffffffffffffffffffffffffffff16815260200190815260200160002060009054906101000a900460ff16905092915050565b60007f80ac58cd000000000000000000000000000000000000000000000000000000007bffffffffffffffffffffffffffffffffffffffffffffffffffffffff1916827bffffffffffffffffffffffffffffffffffffffffffffffffffffffff191614806110ad57507f5b5e139f000000000000000000000000000000000000000000000000000000007bffffffffffffffffffffffffffffffffffffffffffffffffffffffff1916827bffffffffffffffffffffffffffffffffffffffffffffffffffffffff1916145b806110bd57506110bc826117d7565b5b9050919050565b6110de828260405180602001604052806000815250611841565b5050565b806006600084815260200190815260200160002090816111029190612c63565b507ff8e1a15aba9398e019f0b49df1a4fde98ee17ae345cb5f6b5e2c27f5033e8ce78260405161113291906121bc565b60405180910390a15050565b60008061114a83611865565b9050600073ffffffffffffffffffffffffffffffffffffffff168173ffffffffffffffffffffffffffffffffffffffff16036111bd57826040517f7e2732890000000000000000000000000000000000000000000000000000000081526004016111b491906121bc565b60405180910390fd5b80915050919050565b60006004600083815260200190815260200160002060009054906101000a900473ffffffffffffffffffffffffffffffffffffffff169050919050565b600033905090565b61121883838360016118a2565b505050565b60008061122984611865565b9050600073ffffffffffffffffffffffffffffffffffffffff168373ffffffffffffffffffffffffffffffffffffffff161461126b5761126a818486611a67565b5b600073ffffffffffffffffffffffffffffffffffffffff168173ffffffffffffffffffffffffffffffffffffffff16146112fc576112ad6000856000806118a2565b6001600360008373ffffffffffffffffffffffffffffffffffffffff1673ffffffffffffffffffffffffffffffffffffffff168152602001908152602001600020600082825403925050819055505b600073ffffffffffffffffffffffffffffffffffffffff168573ffffffffffffffffffffffffffffffffffffffff161461137f576001600360008773ffffffffffffffffffffffffffffffffffffffff1673ffffffffffffffffffffffffffffffffffffffff168152602001908152602001600020600082825401925050819055505b846002600086815260200190815260200160002060006101000a81548173ffffffffffffffffffffffffffffffffffffffff021916908373ffffffffffffffffffffffffffffffffffffffff160217905550838573ffffffffffffffffffffffffffffffffffffffff168273ffffffffffffffffffffffffffffffffffffffff167fddf252ad1be2c89b69c2b068fc378daa952ba7f163c4a11628f55a4df523b3ef60405160405180910390a4809150509392505050565b600073ffffffffffffffffffffffffffffffffffffffff168273ffffffffffffffffffffffffffffffffffffffff16036114a857816040517f5b08ba1800000000000000000000000000000000000000000000000000000000815260040161149f91906122e6565b60405180910390fd5b80600560008573ffffffffffffffffffffffffffffffffffffffff1673ffffffffffffffffffffffffffffffffffffffff16815260200190815260200160002060008473ffffffffffffffffffffffffffffffffffffffff1673ffffffffffffffffffffffffffffffffffffffff16815260200190815260200160002060006101000a81548160ff0219169083151502179055508173ffffffffffffffffffffffffffffffffffffffff168373ffffffffffffffffffffffffffffffffffffffff167f17307eab39ab6107e8899845ad3d59bd9653f200f220920489ca2b5937696c31836040516115999190611fba565b60405180910390a3505050565b60008373ffffffffffffffffffffffffffffffffffffffff163b1115611750578273ffffffffffffffffffffffffffffffffffffffff1663150b7a02868685856040518563ffffffff1660e01b81526004016116059493929190612d8a565b6020604051808303816000875af192505050801561164157506040513d601f19601f8201168201806040525081019061163e9190612deb565b60015b6116c5573d8060008114611671576040519150601f19603f3d011682016040523d82523d6000602084013e611676565b606091505b5060008151036116bd57836040517f64a0ae920000000000000000000000000000000000000000000000000000000081526004016116b491906122e6565b60405180910390fd5b805181602001fd5b63150b7a0260e01b7bffffffffffffffffffffffffffffffffffffffffffffffffffffffff1916817bffffffffffffffffffffffffffffffffffffffffffffffffffffffff19161461174e57836040517f64a0ae9200000000000000000000000000000000000000000000000000000000815260040161174591906122e6565b60405180910390fd5b505b5050505050565b606060405180602001604052806000815250905090565b60606117798261113e565b506000611784611757565b905060008151116117a457604051806020016040528060008152506117cf565b806117ae84611b2b565b6040516020016117bf9291906128f3565b6040516020818303038152906040525b915050919050565b60007f01ffc9a7000000000000000000000000000000000000000000000000000000007bffffffffffffffffffffffffffffffffffffffffffffffffffffffff1916827bffffffffffffffffffffffffffffffffffffffffffffffffffffffff1916149050919050565b61184b8383611bf9565b611860611856611203565b60008585856115a6565b505050565b60006002600083815260200190815260200160002060009054906101000a900473ffffffffffffffffffffffffffffffffffffffff169050919050565b80806118db5750600073ffffffffffffffffffffffffffffffffffffffff168273ffffffffffffffffffffffffffffffffffffffff1614155b15611a0f5760006118eb8461113e565b9050600073ffffffffffffffffffffffffffffffffffffffff168373ffffffffffffffffffffffffffffffffffffffff161415801561195657508273ffffffffffffffffffffffffffffffffffffffff168173ffffffffffffffffffffffffffffffffffffffff1614155b801561196957506119678184610f4e565b155b156119ab57826040517fa9fbf51f0000000000000000000000000000000000000000000000000000000081526004016119a291906122e6565b60405180910390fd5b8115611a0d57838573ffffffffffffffffffffffffffffffffffffffff168273ffffffffffffffffffffffffffffffffffffffff167f8c5be1e5ebec7d5bd14f71427d1e84f3dd0314c0f7b2291e5b200ac8c7c3b92560405160405180910390a45b505b836004600085815260200190815260200160002060006101000a81548173ffffffffffffffffffffffffffffffffffffffff021916908373ffffffffffffffffffffffffffffffffffffffff16021790555050505050565b611a72838383611cf2565b611b2657600073ffffffffffffffffffffffffffffffffffffffff168373ffffffffffffffffffffffffffffffffffffffff1603611ae757806040517f7e273289000000000000000000000000000000000000000000000000000000008152600401611ade91906121bc565b60405180910390fd5b81816040517f177e802f000000000000000000000000000000000000000000000000000000008152600401611b1d929190612e18565b60405180910390fd5b505050565b606060006001611b3a84611db3565b01905060008167ffffffffffffffff811115611b5957611b58611ff0565b5b6040519080825280601f01601f191660200182016040528015611b8b5781602001600182028036833780820191505090505b509050600082602001820190505b600115611bee578080600190039150507f3031323334353637383961626364656600000000000000000000000000000000600a86061a8153600a8581611be257611be1612959565b5b04945060008503611b99575b819350505050919050565b600073ffffffffffffffffffffffffffffffffffffffff168273ffffffffffffffffffffffffffffffffffffffff1603611c6b5760006040517f64a0ae92000000000000000000000000000000000000000000000000000000008152600401611c6291906122e6565b60405180910390fd5b6000611c798383600061121d565b9050600073ffffffffffffffffffffffffffffffffffffffff168173ffffffffffffffffffffffffffffffffffffffff1614611ced5760006040517f73c6ac6e000000000000000000000000000000000000000000000000000000008152600401611ce491906122e6565b60405180910390fd5b505050565b60008073ffffffffffffffffffffffffffffffffffffffff168373ffffffffffffffffffffffffffffffffffffffff1614158015611daa57508273ffffffffffffffffffffffffffffffffffffffff168473ffffffffffffffffffffffffffffffffffffffff161480611d6b5750611d6a8484610f4e565b5b80611da957508273ffffffffffffffffffffffffffffffffffffffff16611d91836111c6565b73ffffffffffffffffffffffffffffffffffffffff16145b5b90509392505050565b600080600090507a184f03e93ff9f4daa797ed6e38ed64bf6a1f0100000000000000008310611e11577a184f03e93ff9f4daa797ed6e38ed64bf6a1f0100000000000000008381611e0757611e06612959565b5b0492506040810190505b6d04ee2d6d415b85acef81000000008310611e4e576d04ee2d6d415b85acef81000000008381611e4457611e43612959565b5b0492506020810190505b662386f26fc100008310611e7d57662386f26fc100008381611e7357611e72612959565b5b0492506010810190505b6305f5e1008310611ea6576305f5e1008381611e9c57611e9b612959565b5b0492506008810190505b6127108310611ecb576127108381611ec157611ec0612959565b5b0492506004810190505b60648310611eee5760648381611ee457611ee3612959565b5b0492506002810190505b600a8310611efd576001810190505b80915050919050565b6000604051905090565b600080fd5b600080fd5b60007fffffffff0000000000000000000000000000000000000000000000000000000082169050919050565b611f4f81611f1a565b8114611f5a57600080fd5b50565b600081359050611f6c81611f46565b92915050565b600060208284031215611f8857611f87611f10565b5b6000611f9684828501611f5d565b91505092915050565b60008115159050919050565b611fb481611f9f565b82525050565b6000602082019050611fcf6000830184611fab565b92915050565b600080fd5b600080fd5b6000601f19601f8301169050919050565b7f4e487b7100000000000000000000000000000000000000000000000000000000600052604160045260246000fd5b61202882611fdf565b810181811067ffffffffffffffff8211171561204757612046611ff0565b5b80604052505050565b600061205a611f06565b9050612066828261201f565b919050565b600067ffffffffffffffff82111561208657612085611ff0565b5b61208f82611fdf565b9050602081019050919050565b82818337600083830152505050565b60006120be6120b98461206b565b612050565b9050828152602081018484840111156120da576120d9611fda565b5b6120e584828561209c565b509392505050565b600082601f83011261210257612101611fd5565b5b81356121128482602086016120ab565b91505092915050565b6000819050919050565b61212e8161211b565b811461213957600080fd5b50565b60008135905061214b81612125565b92915050565b6000806040838503121561216857612167611f10565b5b600083013567ffffffffffffffff81111561218657612185611f15565b5b612192858286016120ed565b92505060206121a38582860161213c565b9150509250929050565b6121b68161211b565b82525050565b60006020820190506121d160008301846121ad565b92915050565b600081519050919050565b600082825260208201905092915050565b60005b838110156122115780820151818401526020810190506121f6565b60008484015250505050565b6000612228826121d7565b61223281856121e2565b93506122428185602086016121f3565b61224b81611fdf565b840191505092915050565b60006020820190508181036000830152612270818461221d565b905092915050565b60006020828403121561228e5761228d611f10565b5b600061229c8482850161213c565b91505092915050565b600073ffffffffffffffffffffffffffffffffffffffff82169050919050565b60006122d0826122a5565b9050919050565b6122e0816122c5565b82525050565b60006020820190506122fb60008301846122d7565b92915050565b61230a816122c5565b811461231557600080fd5b50565b60008135905061232781612301565b92915050565b6000806040838503121561234457612343611f10565b5b600061235285828601612318565b92505060206123638582860161213c565b9150509250929050565b60008060006060848603121561238657612385611f10565b5b600061239486828701612318565b93505060206123a586828701612318565b92505060406123b68682870161213c565b9150509250925092565b6000602082840312156123d6576123d5611f10565b5b60006123e484828501612318565b91505092915050565b6000806040838503121561240457612403611f10565b5b60006124128582860161213c565b92505060206124238582860161213c565b9150509250929050565b61243681611f9f565b811461244157600080fd5b50565b6000813590506124538161242d565b92915050565b600080604083850312156124705761246f611f10565b5b600061247e85828601612318565b925050602061248f85828601612444565b9150509250929050565b600067ffffffffffffffff8211156124b4576124b3611ff0565b5b6124bd82611fdf565b9050602081019050919050565b60006124dd6124d884612499565b612050565b9050828152602081018484840111156124f9576124f8611fda565b5b61250484828561209c565b509392505050565b600082601f83011261252157612520611fd5565b5b81356125318482602086016124ca565b91505092915050565b6000806000806080858703121561255457612553611f10565b5b600061256287828801612318565b945050602061257387828801612318565b93505060406125848782880161213c565b925050606085013567ffffffffffffffff8111156125a5576125a4611f15565b5b6125b18782880161250c565b91505092959194509250565b60006125c8826122a5565b9050919050565b6125d8816125bd565b82525050565b600060a0820190506125f360008301886121ad565b61260060208301876121ad565b61260d60408301866121ad565b61261a60608301856125cf565b6126276080830184611fab565b9695505050505050565b6000806040838503121561264857612647611f10565b5b600061265685828601612318565b925050602061266785828601612318565b9150509250929050565b7f4e487b7100000000000000000000000000000000000000000000000000000000600052601160045260246000fd5b60006126ab8261211b565b91507fffffffffffffffffffffffffffffffffffffffffffffffffffffffffffffffff82036126dd576126dc612671565b5b600182019050919050565b60006060820190506126fd60008301866121ad565b61270a60208301856121ad565b61271760408301846121ad565b949350505050565b7f4e487b7100000000000000000000000000000000000000000000000000000000600052602260045260246000fd5b6000600282049050600182168061276657607f821691505b6020821081036127795761277861271f565b5b50919050565b600060608201905061279460008301866122d7565b6127a160208301856121ad565b6127ae60408301846122d7565b949350505050565b7f596f7520646f206e6f74206f776e2074686973204e4654000000000000000000600082015250565b60006127ec6017836121e2565b91506127f7826127b6565b602082019050919050565b6000602082019050818103600083015261281b816127df565b9050919050565b7f5072696365206d7573742062652067726561746572207468616e203000000000600082015250565b6000612858601c836121e2565b915061286382612822565b602082019050919050565b600060208201905081810360008301526128878161284b565b9050919050565b60006040820190506128a360008301856121ad565b6128b060208301846121ad565b9392505050565b600081905092915050565b60006128cd826121d7565b6128d781856128b7565b93506128e78185602086016121f3565b80840191505092915050565b60006128ff82856128c2565b915061290b82846128c2565b91508190509392505050565b60006129228261211b565b915061292d8361211b565b925082820261293b8161211b565b9150828204841483151761295257612951612671565b5b5092915050565b7f4e487b7100000000000000000000000000000000000000000000000000000000600052601260045260246000fd5b60006129938261211b565b915061299e8361211b565b9250826129ae576129ad612959565b5b828204905092915050565b7f4974656d20646f65736e27742065786973740000000000000000000000000000600082015250565b60006129ef6012836121e2565b91506129fa826129b9565b602082019050919050565b60006020820190508181036000830152612a1e816129e2565b9050919050565b7f4e6f7420656e6f75676820657468657220746f20636f766572206974656d207060008201527f7269636500000000000000000000000000000000000000000000000000000000602082015250565b6000612a816024836121e2565b9150612a8c82612a25565b604082019050919050565b60006020820190508181036000830152612ab081612a74565b9050919050565b60008190508160005260206000209050919050565b60006020601f8301049050919050565b600082821b905092915050565b600060088302612b197fffffffffffffffffffffffffffffffffffffffffffffffffffffffffffffffff82612adc565b612b238683612adc565b95508019841693508086168417925050509392505050565b6000819050919050565b6000612b60612b5b612b568461211b565b612b3b565b61211b565b9050919050565b6000819050919050565b612b7a83612b45565b612b8e612b8682612b67565b848454612ae9565b825550505050565b600090565b612ba3612b96565b612bae818484612b71565b505050565b5b81811015612bd257612bc7600082612b9b565b600181019050612bb4565b5050565b601f821115612c1757612be881612ab7565b612bf184612acc565b81016020851015612c00578190505b612c14612c0c85612acc565b830182612bb3565b50505b505050565b600082821c905092915050565b6000612c3a60001984600802612c1c565b1980831691505092915050565b6000612c538383612c29565b9150826002028217905092915050565b612c6c826121d7565b67ffffffffffffffff811115612c8557612c84611ff0565b5b612c8f825461274e565b612c9a828285612bd6565b600060209050601f831160018114612ccd5760008415612cbb578287015190505b612cc58582612c47565b865550612d2d565b601f198416612cdb86612ab7565b60005b82811015612d0357848901518255600182019150602085019450602081019050612cde565b86831015612d205784890151612d1c601f891682612c29565b8355505b6001600288020188555050505b505050505050565b600081519050919050565b600082825260208201905092915050565b6000612d5c82612d35565b612d668185612d40565b9350612d768185602086016121f3565b612d7f81611fdf565b840191505092915050565b6000608082019050612d9f60008301876122d7565b612dac60208301866122d7565b612db960408301856121ad565b8181036060830152612dcb8184612d51565b905095945050505050565b600081519050612de581611f46565b92915050565b600060208284031215612e0157612e00611f10565b5b6000612e0f84828501612dd6565b91505092915050565b6000604082019050612e2d60008301856122d7565b612e3a60208301846121ad565b939250505056fea2646970667358221220bf03be5fd3475ccfb576b4315ca09bb7e7cb95adab7540439962b98dc7f9375464736f6c63430008140033",
  "linkReferences": {},
  "deployedLinkReferences": {}
}