{
  "_format": "hh-sol-artifact-1",
  "contractName": "MyNFT",
  "sourceName": "contracts/MyNFT.sol",
  "abi": [
    {
      "inputs": [],
      "stateMutability": "nonpayable",
      "type": "constructor"
    },
    {
      "inputs": [
        {
          "internalType": "address",
          "name": "sender",
          "type": "address"
        },
        {
          "internalType": "uint256",
          "name": "tokenId",
          "type": "uint256"
        },
        {
          "internalType": "address",
          "name": "owner",
          "type": "address"
        }
      ],
      "name": "ERC721IncorrectOwner",
      "type": "error"
    },
    {
      "inputs": [
        {
          "internalType": "address",
          "name": "operator",
          "type": "address"
        },
        {
          "internalType": "uint256",
          "name": "tokenId",
          "type": "uint256"
        }
      ],
      "name": "ERC721InsufficientApproval",
      "type": "error"
    },
    {
      "inputs": [
        {
          "internalType": "address",
          "name": "approver",
          "type": "address"
        }
      ],
      "name": "ERC721InvalidApprover",
      "type": "error"
    },
    {
      "inputs": [
        {
          "internalType": "address",
          "name": "operator",
          "type": "address"
        }
      ],
      "name": "ERC721InvalidOperator",
      "type": "error"
    },
    {
      "inputs": [
        {
          "internalType": "address",
          "name": "owner",
          "type": "address"
        }
      ],
      "name": "ERC721InvalidOwner",
      "type": "error"
    },
    {
      "inputs": [
        {
          "internalType": "address",
          "name": "receiver",
          "type": "address"
        }
      ],
      "name": "ERC721InvalidReceiver",
      "type": "error"
    },
    {
      "inputs": [
        {
          "internalType": "address",
          "name": "sender",
          "type": "address"
        }
      ],
      "name": "ERC721InvalidSender",
      "type": "error"
    },
    {
      "inputs": [
        {
          "internalType": "uint256",
          "name": "tokenId",
          "type": "uint256"
        }
      ],
      "name": "ERC721NonexistentToken",
      "type": "error"
    },
    {
      "inputs": [
        {
          "internalType": "address",
          "name": "owner",
          "type": "address"
        }
      ],
      "name": "OwnableInvalidOwner",
      "type": "error"
    },
    {
      "inputs": [
        {
          "internalType": "address",
          "name": "account",
          "type": "address"
        }
      ],
      "name": "OwnableUnauthorizedAccount",
      "type": "error"
    },
    {
      "anonymous": false,
      "inputs": [
        {
          "indexed": true,
          "internalType": "address",
          "name": "owner",
          "type": "address"
        },
        {
          "indexed": true,
          "internalType": "address",
          "name": "approved",
          "type": "address"
        },
        {
          "indexed": true,
          "internalType": "uint256",
          "name": "tokenId",
          "type": "uint256"
        }
      ],
      "name": "Approval",
      "type": "event"
    },
    {
      "anonymous": false,
      "inputs": [
        {
          "indexed": true,
          "internalType": "address",
          "name": "owner",
          "type": "address"
        },
        {
          "indexed": true,
          "internalType": "address",
          "name": "operator",
          "type": "address"
        },
        {
          "indexed": false,
          "internalType": "bool",
          "name": "approved",
          "type": "bool"
        }
      ],
      "name": "ApprovalForAll",
      "type": "event"
    },
    {
      "anonymous": false,
      "inputs": [
        {
          "indexed": false,
          "internalType": "uint256",
          "name": "_fromTokenId",
          "type": "uint256"
        },
        {
          "indexed": false,
          "internalType": "uint256",
          "name": "_toTokenId",
          "type": "uint256"
        }
      ],
      "name": "BatchMetadataUpdate",
      "type": "event"
    },
    {
      "anonymous": false,
      "inputs": [
        {
          "indexed": false,
          "internalType": "uint256",
          "name": "_tokenId",
          "type": "uint256"
        }
      ],
      "name": "MetadataUpdate",
      "type": "event"
    },
    {
      "anonymous": false,
      "inputs": [
        {
          "indexed": true,
          "internalType": "address",
          "name": "previousOwner",
          "type": "address"
        },
        {
          "indexed": true,
          "internalType": "address",
          "name": "newOwner",
          "type": "address"
        }
      ],
      "name": "OwnershipTransferred",
      "type": "event"
    },
    {
      "anonymous": false,
      "inputs": [
        {
          "indexed": true,
          "internalType": "address",
          "name": "from",
          "type": "address"
        },
        {
          "indexed": true,
          "internalType": "address",
          "name": "to",
          "type": "address"
        },
        {
          "indexed": true,
          "internalType": "uint256",
          "name": "tokenId",
          "type": "uint256"
        }
      ],
      "name": "Transfer",
      "type": "event"
    },
    {
      "inputs": [
        {
          "internalType": "address",
          "name": "to",
          "type": "address"
        },
        {
          "internalType": "uint256",
          "name": "tokenId",
          "type": "uint256"
        }
      ],
      "name": "approve",
      "outputs": [],
      "stateMutability": "nonpayable",
      "type": "function"
    },
    {
      "inputs": [
        {
          "internalType": "address",
          "name": "owner",
          "type": "address"
        }
      ],
      "name": "balanceOf",
      "outputs": [
        {
          "internalType": "uint256",
          "name": "",
          "type": "uint256"
        }
      ],
      "stateMutability": "view",
      "type": "function"
    },
    {
      "inputs": [
        {
          "internalType": "string",
          "name": "tokenURI",
          "type": "string"
        }
      ],
      "name": "createNFT",
      "outputs": [
        {
          "internalType": "uint256",
          "name": "",
          "type": "uint256"
        }
      ],
      "stateMutability": "nonpayable",
      "type": "function"
    },
    {
      "inputs": [
        {
          "internalType": "uint256",
          "name": "tokenId",
          "type": "uint256"
        }
      ],
      "name": "getApproved",
      "outputs": [
        {
          "internalType": "address",
          "name": "",
          "type": "address"
        }
      ],
      "stateMutability": "view",
      "type": "function"
    },
    {
      "inputs": [
        {
          "internalType": "address",
          "name": "owner",
          "type": "address"
        },
        {
          "internalType": "address",
          "name": "operator",
          "type": "address"
        }
      ],
      "name": "isApprovedForAll",
      "outputs": [
        {
          "internalType": "bool",
          "name": "",
          "type": "bool"
        }
      ],
      "stateMutability": "view",
      "type": "function"
    },
    {
      "inputs": [],
      "name": "name",
      "outputs": [
        {
          "internalType": "string",
          "name": "",
          "type": "string"
        }
      ],
      "stateMutability": "view",
      "type": "function"
    },
    {
      "inputs": [],
      "name": "owner",
      "outputs": [
        {
          "internalType": "address",
          "name": "",
          "type": "address"
        }
      ],
      "stateMutability": "view",
      "type": "function"
    },
    {
      "inputs": [
        {
          "internalType": "uint256",
          "name": "tokenId",
          "type": "uint256"
        }
      ],
      "name": "ownerOf",
      "outputs": [
        {
          "internalType": "address",
          "name": "",
          "type": "address"
        }
      ],
      "stateMutability": "view",
      "type": "function"
    },
    {
      "inputs": [],
      "name": "renounceOwnership",
      "outputs": [],
      "stateMutability": "nonpayable",
      "type": "function"
    },
    {
      "inputs": [
        {
          "internalType": "address",
          "name": "from",
          "type": "address"
        },
        {
          "internalType": "address",
          "name": "to",
          "type": "address"
        },
        {
          "internalType": "uint256",
          "name": "tokenId",
          "type": "uint256"
        }
      ],
      "name": "safeTransferFrom",
      "outputs": [],
      "stateMutability": "nonpayable",
      "type": "function"
    },
    {
      "inputs": [
        {
          "internalType": "address",
          "name": "from",
          "type": "address"
        },
        {
          "internalType": "address",
          "name": "to",
          "type": "address"
        },
        {
          "internalType": "uint256",
          "name": "tokenId",
          "type": "uint256"
        },
        {
          "internalType": "bytes",
          "name": "data",
          "type": "bytes"
        }
      ],
      "name": "safeTransferFrom",
      "outputs": [],
      "stateMutability": "nonpayable",
      "type": "function"
    },
    {
      "inputs": [
        {
          "internalType": "address",
          "name": "operator",
          "type": "address"
        },
        {
          "internalType": "bool",
          "name": "approved",
          "type": "bool"
        }
      ],
      "name": "setApprovalForAll",
      "outputs": [],
      "stateMutability": "nonpayable",
      "type": "function"
    },
    {
      "inputs": [
        {
          "internalType": "bytes4",
          "name": "interfaceId",
          "type": "bytes4"
        }
      ],
      "name": "supportsInterface",
      "outputs": [
        {
          "internalType": "bool",
          "name": "",
          "type": "bool"
        }
      ],
      "stateMutability": "view",
      "type": "function"
    },
    {
      "inputs": [],
      "name": "symbol",
      "outputs": [
        {
          "internalType": "string",
          "name": "",
          "type": "string"
        }
      ],
      "stateMutability": "view",
      "type": "function"
    },
    {
      "inputs": [
        {
          "internalType": "uint256",
          "name": "tokenId",
          "type": "uint256"
        }
      ],
      "name": "tokenURI",
      "outputs": [
        {
          "internalType": "string",
          "name": "",
          "type": "string"
        }
      ],
      "stateMutability": "view",
      "type": "function"
    },
    {
      "inputs": [],
      "name": "tokencounter",
      "outputs": [
        {
          "internalType": "uint256",
          "name": "",
          "type": "uint256"
        }
      ],
      "stateMutability": "view",
      "type": "function"
    },
    {
      "inputs": [
        {
          "internalType": "address",
          "name": "from",
          "type": "address"
        },
        {
          "internalType": "address",
          "name": "to",
          "type": "address"
        },
        {
          "internalType": "uint256",
          "name": "tokenId",
          "type": "uint256"
        }
      ],
      "name": "transferFrom",
      "outputs": [],
      "stateMutability": "nonpayable",
      "type": "function"
    },
    {
      "inputs": [
        {
          "internalType": "address",
          "name": "newOwner",
          "type": "address"
        }
      ],
      "name": "transferOwnership",
      "outputs": [],
      "stateMutability": "nonpayable",
      "type": "function"
    }
  ],
  "bytecode": "0x60806040523480156200001157600080fd5b503360405180604001604052806005815260200164135e53919560da1b815250604051806040016040528060048152602001631353919560e21b81525081600090816200005f9190620001ae565b5060016200006e8282620001ae565b5050506001600160a01b038116620000a057604051631e4fbdf760e01b81526000600482015260240160405180910390fd5b620000ab81620000b7565b5060006008556200027a565b600780546001600160a01b038381166001600160a01b0319831681179093556040519116919082907f8be0079c531659141344cd1fd0a4f28419497f9722a3daafe3b4186f6b6457e090600090a35050565b634e487b7160e01b600052604160045260246000fd5b600181811c908216806200013457607f821691505b6020821081036200015557634e487b7160e01b600052602260045260246000fd5b50919050565b601f821115620001a957600081815260208120601f850160051c81016020861015620001845750805b601f850160051c820191505b81811015620001a55782815560010162000190565b5050505b505050565b81516001600160401b03811115620001ca57620001ca62000109565b620001e281620001db84546200011f565b846200015b565b602080601f8311600181146200021a5760008415620002015750858301515b600019600386901b1c1916600185901b178555620001a5565b600085815260208120601f198616915b828110156200024b578886015182559484019460019091019084016200022a565b50858210156200026a5787850151600019600388901b60f8161c191681555b5050505050600190811b01905550565b61141a806200028a6000396000f3fe608060405234801561001057600080fd5b50600436106101165760003560e01c8063715018a6116100a2578063b88d4fde11610071578063b88d4fde1461022f578063c87b56dd14610242578063da2ed03e14610255578063e985e9c514610268578063f2fde38b1461027b57600080fd5b8063715018a6146101fb5780638da5cb5b1461020357806395d89b4114610214578063a22cb4651461021c57600080fd5b8063115ae143116100e9578063115ae1431461019857806323b872dd146101af57806342842e0e146101c25780636352211e146101d557806370a08231146101e857600080fd5b806301ffc9a71461011b57806306fdde0314610143578063081812fc14610158578063095ea7b314610183575b600080fd5b61012e610129366004610f04565b61028e565b60405190151581526020015b60405180910390f35b61014b6102b9565b60405161013a9190610f71565b61016b610166366004610f84565b61034b565b6040516001600160a01b03909116815260200161013a565b610196610191366004610fb9565b610374565b005b6101a160085481565b60405190815260200161013a565b6101966101bd366004610fe3565b610383565b6101966101d0366004610fe3565b610413565b61016b6101e3366004610f84565b610433565b6101a16101f636600461101f565b61043e565b610196610486565b6007546001600160a01b031661016b565b61014b61049a565b61019661022a36600461103a565b6104a9565b61019661023d366004611102565b6104b4565b61014b610250366004610f84565b6104cc565b6101a161026336600461117e565b6105dd565b61012e6102763660046111c7565b610616565b61019661028936600461101f565b610644565b60006001600160e01b03198216632483248360e11b14806102b357506102b382610682565b92915050565b6060600080546102c8906111fa565b80601f01602080910402602001604051908101604052809291908181526020018280546102f4906111fa565b80156103415780601f1061031657610100808354040283529160200191610341565b820191906000526020600020905b81548152906001019060200180831161032457829003601f168201915b5050505050905090565b6000610356826106d2565b506000828152600460205260409020546001600160a01b03166102b3565b61037f82823361070b565b5050565b6001600160a01b0382166103b257604051633250574960e11b8152600060048201526024015b60405180910390fd5b60006103bf838333610718565b9050836001600160a01b0316816001600160a01b03161461040d576040516364283d7b60e01b81526001600160a01b03808616600483015260248201849052821660448201526064016103a9565b50505050565b61042e838383604051806020016040528060008152506104b4565b505050565b60006102b3826106d2565b60006001600160a01b03821661046a576040516322718ad960e21b8152600060048201526024016103a9565b506001600160a01b031660009081526003602052604090205490565b61048e610811565b610498600061083e565b565b6060600180546102c8906111fa565b61037f338383610890565b6104bf848484610383565b61040d338585858561092f565b60606104d7826106d2565b50600082815260066020526040812080546104f1906111fa565b80601f016020809104026020016040519081016040528092919081815260200182805461051d906111fa565b801561056a5780601f1061053f5761010080835404028352916020019161056a565b820191906000526020600020905b81548152906001019060200180831161054d57829003601f168201915b50505050509050600061058860408051602081019091526000815290565b9050805160000361059a575092915050565b8151156105cc5780826040516020016105b4929190611234565b60405160208183030381529060405292505050919050565b6105d584610a5a565b949350505050565b6008546000906105ed3382610acf565b6105f78184610ae9565b60016008600082825461060a9190611263565b90915550909392505050565b6001600160a01b03918216600090815260056020908152604080832093909416825291909152205460ff1690565b61064c610811565b6001600160a01b03811661067657604051631e4fbdf760e01b8152600060048201526024016103a9565b61067f8161083e565b50565b60006001600160e01b031982166380ac58cd60e01b14806106b357506001600160e01b03198216635b5e139f60e01b145b806102b357506301ffc9a760e01b6001600160e01b03198316146102b3565b6000818152600260205260408120546001600160a01b0316806102b357604051637e27328960e01b8152600481018490526024016103a9565b61042e8383836001610b39565b6000828152600260205260408120546001600160a01b039081169083161561074557610745818486610c3f565b6001600160a01b0381161561078357610762600085600080610b39565b6001600160a01b038116600090815260036020526040902080546000190190555b6001600160a01b038516156107b2576001600160a01b0385166000908152600360205260409020805460010190555b60008481526002602052604080822080546001600160a01b0319166001600160a01b0389811691821790925591518793918516917fddf252ad1be2c89b69c2b068fc378daa952ba7f163c4a11628f55a4df523b3ef91a4949350505050565b6007546001600160a01b031633146104985760405163118cdaa760e01b81523360048201526024016103a9565b600780546001600160a01b038381166001600160a01b0319831681179093556040519116919082907f8be0079c531659141344cd1fd0a4f28419497f9722a3daafe3b4186f6b6457e090600090a35050565b6001600160a01b0382166108c257604051630b61174360e31b81526001600160a01b03831660048201526024016103a9565b6001600160a01b03838116600081815260056020908152604080832094871680845294825291829020805460ff191686151590811790915591519182527f17307eab39ab6107e8899845ad3d59bd9653f200f220920489ca2b5937696c31910160405180910390a3505050565b6001600160a01b0383163b15610a5357604051630a85bd0160e11b81526001600160a01b0384169063150b7a0290610971908890889087908790600401611284565b6020604051808303816000875af19250505080156109ac575060408051601f3d908101601f191682019092526109a9918101906112c1565b60015b610a15573d8080156109da576040519150601f19603f3d011682016040523d82523d6000602084013e6109df565b606091505b508051600003610a0d57604051633250574960e11b81526001600160a01b03851660048201526024016103a9565b805181602001fd5b6001600160e01b03198116630a85bd0160e11b14610a5157604051633250574960e11b81526001600160a01b03851660048201526024016103a9565b505b5050505050565b6060610a65826106d2565b506000610a7d60408051602081019091526000815290565b90506000815111610a9d5760405180602001604052806000815250610ac8565b80610aa784610ca3565b604051602001610ab8929190611234565b6040516020818303038152906040525b9392505050565b61037f828260405180602001604052806000815250610d36565b6000828152600660205260409020610b018282611324565b506040518281527ff8e1a15aba9398e019f0b49df1a4fde98ee17ae345cb5f6b5e2c27f5033e8ce79060200160405180910390a15050565b8080610b4d57506001600160a01b03821615155b15610c0f576000610b5d846106d2565b90506001600160a01b03831615801590610b895750826001600160a01b0316816001600160a01b031614155b8015610b9c5750610b9a8184610616565b155b15610bc55760405163a9fbf51f60e01b81526001600160a01b03841660048201526024016103a9565b8115610c0d5783856001600160a01b0316826001600160a01b03167f8c5be1e5ebec7d5bd14f71427d1e84f3dd0314c0f7b2291e5b200ac8c7c3b92560405160405180910390a45b505b5050600090815260046020526040902080546001600160a01b0319166001600160a01b0392909216919091179055565b610c4a838383610d4e565b61042e576001600160a01b038316610c7857604051637e27328960e01b8152600481018290526024016103a9565b60405163177e802f60e01b81526001600160a01b0383166004820152602481018290526044016103a9565b60606000610cb083610db1565b600101905060008167ffffffffffffffff811115610cd057610cd0611076565b6040519080825280601f01601f191660200182016040528015610cfa576020820181803683370190505b5090508181016020015b600019016f181899199a1a9b1b9c1cb0b131b232b360811b600a86061a8153600a8504945084610d0457509392505050565b610d408383610e89565b61042e33600085858561092f565b60006001600160a01b038316158015906105d55750826001600160a01b0316846001600160a01b03161480610d885750610d888484610616565b806105d55750506000908152600460205260409020546001600160a01b03908116911614919050565b60008072184f03e93ff9f4daa797ed6e38ed64bf6a1f0160401b8310610df05772184f03e93ff9f4daa797ed6e38ed64bf6a1f0160401b830492506040015b6d04ee2d6d415b85acef81000000008310610e1c576d04ee2d6d415b85acef8100000000830492506020015b662386f26fc100008310610e3a57662386f26fc10000830492506010015b6305f5e1008310610e52576305f5e100830492506008015b6127108310610e6657612710830492506004015b60648310610e78576064830492506002015b600a83106102b35760010192915050565b6001600160a01b038216610eb357604051633250574960e11b8152600060048201526024016103a9565b6000610ec183836000610718565b90506001600160a01b0381161561042e576040516339e3563760e11b8152600060048201526024016103a9565b6001600160e01b03198116811461067f57600080fd5b600060208284031215610f1657600080fd5b8135610ac881610eee565b60005b83811015610f3c578181015183820152602001610f24565b50506000910152565b60008151808452610f5d816020860160208601610f21565b601f01601f19169290920160200192915050565b602081526000610ac86020830184610f45565b600060208284031215610f9657600080fd5b5035919050565b80356001600160a01b0381168114610fb457600080fd5b919050565b60008060408385031215610fcc57600080fd5b610fd583610f9d565b946020939093013593505050565b600080600060608486031215610ff857600080fd5b61100184610f9d565b925061100f60208501610f9d565b9150604084013590509250925092565b60006020828403121561103157600080fd5b610ac882610f9d565b6000806040838503121561104d57600080fd5b61105683610f9d565b91506020830135801515811461106b57600080fd5b809150509250929050565b634e487b7160e01b600052604160045260246000fd5b600067ffffffffffffffff808411156110a7576110a7611076565b604051601f8501601f19908116603f011681019082821181831017156110cf576110cf611076565b816040528093508581528686860111156110e857600080fd5b858560208301376000602087830101525050509392505050565b6000806000806080858703121561111857600080fd5b61112185610f9d565b935061112f60208601610f9d565b925060408501359150606085013567ffffffffffffffff81111561115257600080fd5b8501601f8101871361116357600080fd5b6111728782356020840161108c565b91505092959194509250565b60006020828403121561119057600080fd5b813567ffffffffffffffff8111156111a757600080fd5b8201601f810184136111b857600080fd5b6105d58482356020840161108c565b600080604083850312156111da57600080fd5b6111e383610f9d565b91506111f160208401610f9d565b90509250929050565b600181811c9082168061120e57607f821691505b60208210810361122e57634e487b7160e01b600052602260045260246000fd5b50919050565b60008351611246818460208801610f21565b83519083019061125a818360208801610f21565b01949350505050565b808201808211156102b357634e487b7160e01b600052601160045260246000fd5b6001600160a01b03858116825284166020820152604081018390526080606082018190526000906112b790830184610f45565b9695505050505050565b6000602082840312156112d357600080fd5b8151610ac881610eee565b601f82111561042e57600081815260208120601f850160051c810160208610156113055750805b601f850160051c820191505b81811015610a5157828155600101611311565b815167ffffffffffffffff81111561133e5761133e611076565b6113528161134c84546111fa565b846112de565b602080601f831160018114611387576000841561136f5750858301515b600019600386901b1c1916600185901b178555610a51565b600085815260208120601f198616915b828110156113b657888601518255948401946001909101908401611397565b50858210156113d45787850151600019600388901b60f8161c191681555b5050505050600190811b0190555056fea2646970667358221220b0f1eb81fafc1b4096edd476a41ff1858892a623fec68790d72f6cb5bbfeb55d64736f6c63430008140033",
  "linkReferences": {},
  "deployedLinkReferences": {}
}